:100000002D2F2040FE2020224CD0212020402E20C9
:100010002040D1FA202021A06F8F703071E07082D3
:10002000D07182D12F2F2E0B2F2F2F0C303130314A
:100030003032303330343035303630373038303994
:10004000313031313132313331343135313631378C
:100050003138313932303231323232333234323572
:100060003236323732383239000000003233202045
:100070002020202020202020202020202020202080
:100080002020202020202020202020202020202070
:100090002020202020202020202020202020202060
:1000A00020202020202020200000000034352020A7
:1000B0002020202020202020202020202020202040
:1000C0002020202020202020202020202020202030
:1000D0002020202020202020202020202020202020
:1000E0002020202020202020000000003637202063
:1000F0002020202020202020202020202020202000
:1001000020202020202020202020202020202020EF
:1001100020202020202020202020202020202020DF
:10012000202020202020202000000000383920201E
:1001300020202020202020202020202020202020BF
:1001400020202020202020202020202020202020AF
:10015000202020202020202020202020202020209F
:1001600020202020202020200000000030312020EE
:10017000202020202020202020202020202020207F
:10018000202020202020202020202020202020206F
:10019000202020202020202020202020202020205F
:1001A00020202020202020200000000032332020AA
:1001B000202020202020202020202020202020203F
:1001C000202020202020202020202020202020202F
:1001D000202020202020202020202020202020201F
:1001E0002020202020202020000000003435202066
:1001F00020202020202020202020202020202020FF
:1002000020202020202020202020202020202020EE
:1002100020202020202020202020202020202020DE
:100220002020202020202020000000003637202021
:1002300020202020202020202020202020202020BE
:1002400020202020202020202020202020202020AE
:10025000202020202020202020202020202020209E
:1002600020202020202020200000000038392020DD
:10027000202020202020202020202020202020207E
:10028000202020202020202020202020202020206E
:10029000202020202020202020202020202020205E
:1002A00020202020202020200000000030312020AD
:1002B000202020202020202020202020202020203E
:1002C000202020202020202020202020202020202E
:1002D000202020202020202020202020202020201E
:1002E0002020202020202020000000003233202069
:1002F00020202020202020202020202020202020FE
:1003000020202020202020202020202020202020ED
:1003100020202020202020202020202020202020DD
:100320002020202020202020000000003435202024
:1003300020202020202020202020202020202020BD
:1003400020202020202020202020202020202020AD
:10035000202020202020202020202020202020209D
:1003600020202020202020200000000036372020E0
:10037000202020202020202020202020202020207D
:10038000202020202020202020202020202020206D
:10039000202020202020202020202020202020205D
:1003A000202020202020202000000000383920209C
:1003B000202020202020202020202020202020203D
:1003C000202020202020202020202020202020202D
:1003D000202020202020202020202020202020201D
:1003E000202020202020202000000000303120206C
:1003F00020202020202020202020202020202020FD
:1004000020202020202020202020202020202020EC
:1004100020202020202020202020202020202020DC
:100420002020202020202020000000003233202027
:1004300020202020202020202020202020202020BC
:1004400020202020202020202020202020202020AC
:10045000202020202020202020202020202020209C
:1004600020202020202020200000000034352020E3
:10047000202020202020202020202020202020207C
:10048000202020202020202020202020202020206C
:10049000202020202020202020202020202020205C
:1004A000202020202020202000000000363720209F
:1004B000202020202020202020202020202020203C
:1004C000202020202020202020202020202020202C
:1004D000202020202020202020202020202020201C
:1004E000202020202020202000000000383920205B
:1004F00020202020202020202020202020202020FC
:1005000020202020202020202020202020202020EB
:1005100020202020202020202020202020202020DB
:1005200020202020202020200000000030315820F2
:1005300020202020202020202020202020202020BB
:1005400020202020202020202020202020202020AB
:10055000202020202020202020202020202020209B
:1005600020202020202020200000000032332020E6
:10057000202020202020202020202020202020207B
:10058000202020202020202020202020202020206B
:10059000202020202020202020202020202020205B
:1005A00020202020202020200000000034352020A2
:1005B000202020202020202020202020202020203B
:1005C000202020202020202020202020202020202B
:1005D000202020202020202020202020202020201B
:1005E000202020202020202000000000363720205E
:1005F00020202020202020202020202020202020FB
:1006000020202020202020202020202020202020EA
:100610002020202020202020202020206162414214
:1006200030312020202020200000000038392020F8
:1006300020202020202020202020202020202020BA
:1006400020202020202020202020202020202020AA
:1006500020202020202020202020202063644344CC
:1006600032332020202020200000000030312020C4
:10067000202020202020202020202020202020207A
:10068000202020202020202020202020202020206A
:100690002020202020202020202020206566454684
:1006A000343520202020202000000000323320207C
:1006B0002020202020202020202020202046202014
:1006C000202020202020202020202020202020202A
:1006D000202020204120202020202020676847481B
:1006E0003637202020202020000000003435202034
:1006F00020202020202020202020202020652020B5
:1007000020202039202020202020202020202020D0
:10071000642020207320202020202020696A494A5C
:1007200038392020202020200000000036372020EB
:10073000202020202020202020202020206C20206D
:100740002020203320202020202020204D20202069
:100750006520202073202020202020206B6C4B4C13
:100760002D5F20202020202000000000383920208C
:100770002020202020202020202020202069202030
:1007800020202020202020204A20202061202020FE
:100790002020202075202020202020206D6E4D4E0E
:1007A0003D2B202020202020000000003031202080
:1007B000202020202020202020202020207A2020DF
:1007C000202061202020202065202020742020204F
:1007D000202020206D202020202020206F704F50CE
:1007E0002140202020202020000000003233202043
:1007F00020202020202020202020202020202020F9
:1008000020206E2020202020632020207420202003
:100810002020202070202020202020207172515282
:100820002324202020202020000000003435202018
:1008300020202020202020202020202020202020B8
:1008400020206F2020202020652020206F202020C5
:100850002020202063202020202020207374535447
:10086000255E202020202020000000003637202098
:100870002020202020202020202020202020202078
:1008800020207320202020206C2020207320202076
:100890002020202061202020202020207576555601
:1008A000262A202020202020000000003839202087
:1008B0002020202020202020202020202020202038
:1008C0002020202020202020202020202020202028
:1008D000202020206F2020202020202077785758AB
:1008E0002829202020202020000000003031202056
:1008F00020202020202020202020202020202020F8
:1009000020202020202020202020202020202020E7
:10091000202020202120202020202020797A595AB0
:100920005B5D2020202020200000000032332020AA
:1009300020202020202020202020202020202020B7
:1009400020202020202020202020202020202020A7
:100950002020202021202020202020202020202096
:1009600020202020202020200000000034352020DE
:100970002020202020202020202020202020202077
:100980002020202020202020202020202020202067
:100990002020202020202020202020202020202057
:1009A000202020202020202000000000363720209A
:1009B0002020202020202020202020202020202037
:1009C0002020202020202020202020202020202027
:1009D0002020202020202020202020202020202017
:1009E0002020202020202020000000003839202056
:1009F00020202020202020202020202020202020F7
:100A000020202020202020202020202020202020E6
:100A100020202020202020202020202020202020D6
:100A200020202020202020200000000000000000C6
:100A3000000000000000000000000000C003C00330
:100A40008001000000000000000000000000000025
:100A5000000000000000000000000000C01CC018E2
:100A6000C01800000000000000000000B83DF81FA2
:100A7000E007800180018001000000003C100000C0
:100A8000000000000000000000000000FC78DE3FD5
:100A90008C0F0000000000000000000000000000BB
:100AA0000000000000000000000000008001C00104
:100AB000C000400000000000000000008001800332
:100AC0000003000200000000000000000000000021
:100AD0000000000000000000000000000000000016
:100AE0000000000000000000000000000003800380
:100AF000800380018001000300000000000000006E
:100B000000000000000000000000000080038003DF
:100B10008003000000000000000000000007000744
:100B2000000600000000000000000000F81FF00FA9
:100B3000E00700000000000000000000E000E0000E
:100B4000E00000000000000000000000F83FFC3F53
:100B5000FC3F00000000000000000000F81FF00F44
:100B6000E0070000000000000000000070007000BE
:100B7000700000000000000000000000F83FF01FBF
:100B8000E00700000000000000000000F81FF00F68
:100B9000E003000000000000000000000007000764
:100BA000000600000000000000000000F81FF00F29
:100BB000E00700000000000000000000F81FF00F38
:100BC000C0070000000000000000000080030000DB
:100BD000000000000000000000000000000380038F
:100BE0008003800180010003000200000800000073
:100BF00000000000000000000000000000000000F5
:100C000000000000000000000000000000000000E4
:100C100000000000000000000000000080038003CE
:100C20008003000000000000000000000000000041
:100C3000000000000000000000000000C00380036E
:100C4000800180018001000000008001300600006A
:100C50000000000000000000000000007006700EA0
:100C6000700E600EFC3FFC3FE01CE01C803D801FCE
:100C7000F00FF803BC019C319C399C3980793C0110
:100C8000660366026606660C660C3C18E01CC00F24
:100C90000007081F9C3BD871F871F070000000003D
:100CA0000000000000000000000000000007000736
:100CB000000700070007000780038003E000E00052
:100CC000E000E000E000E000C001C001C000C000A2
:100CD000D806F807C000E00130031003800180014E
:100CE000F81FF81F800180018001800100000000D2
:100CF00000000000000000000000000000000000F4
:100D0000F00FF00F000000000000000000000000E5
:100D1000000000000000000000000000C001C00151
:100D2000C001800180038003800300031C381C384D
:100D30001C381C381C381C381C38381CE018E000E3
:100D4000E000E000E000E000E000E00038007800B3
:100D5000F000E0038007000F001E003CF001F001EE
:100D6000F8003C001C301C383C38783C700E700C8D
:100D7000701C70387038FC3FFC3F7000F01FF81F8B
:100D80003C1C1C001C001C001C38383CE03BF03FA5
:100D9000F83F3C3C1C381C381C383C1CC001C001CE
:100DA000800380038003800700070007F00FF00F27
:100DB000381C1C381C381C381C383C3C3C3CFC1F84
:100DC000FC0FDC071C001C003C18381C0000000055
:100DD0000000000000000000800380038003800307
:100DE000000000000000000000000000C00F001F15
:100DF000001C001FC00FF803F8003800FC3FFC3F48
:100E0000FC3F00000000FC3FFC3FFC3FF8003800C6
:100E1000F800F003C01F001F001C0010F000E001EC
:100E2000C003800380030001000080030000000075
:100E30000000000000000000000000008001C0036E
:100E4000C003C003C003C003C003C0030000000010
:100E500030063006600C600C700E700E0000000052
:100E60001803180338073807FC3FFC3F8001800156
:100E7000C007F01FF81FB83DB83998390000107846
:100E800030F820CC60CC40CCC0CC80CC000000003E
:100E9000000000008007C00FE01CE01CE000C00064
:100EA000C001800100000000000000004000C00000
:100EB000C0018001800380030007000700020003D7
:100EC00080038001C001C001E000E00000000000DC
:100ED00000000000000000000000C0000000000052
:100EE0000000000000000000800180010000000000
:100EF00000000000000000000000000000000000F2
:100F000000000000000000000000000000000000E1
:100F10000000000000000000000000003000700031
:100F200070006000E000E000E000C0000000E007AA
:100F3000F00FF81F381C1C381C381C3800006000EB
:100F4000E000E001E003E007E01FE01C0000E00734
:100F5000F81FF81F3C3C1C381C381C000000E00740
:100F6000F00FF81F783C3838380078000000600037
:100F7000F000F000F001F003700370070000FC1FA8
:100F8000FC1FF81F001C001C001CE01F0000E003F9
:100F9000F00FF81F381C183C003800380000FC3FE8
:100FA000FC3FFC1F380070007000E0000000E0070C
:100FB000F00FF81F781E381C381C781E0000C00780
:100FC000F00FF81F383C1C381C381C38000000009B
:100FD0000000000000008003800380030000000088
:100FE000000000000000000000008003000000007E
:100FF0000000000008003800F800F80300000000BE
:1010000000000000000000000000000000000000E0
:1010100000000010001C001FC01FF003C007F00FED
:10102000F01F783C38383838383070000000000045
:1010300000000000000000000000000000000000B0
:1010400000000000000000000000000000000000A0
:101050000000000000000000000000000000000090
:101060000000000000000000000000000000000080
:101070000000000000000000000000000000000070
:101080000000000000000000000000000000000060
:101090000000000000000000000000000000000050
:1010A0000000000000000000000000000000000040
:1010B0000000000000000000000000000000000030
:1010C0000000000000000000000000000000000020
:1010D0000000000000000000000000000000000010
:1010E0000000000000000000000000000000000000
:1010F00000000000000000000000000000000000F0
:1011000000000000000000000000000000000000DF
:1011100000000000000000000000000000000000CF
:1011200000000000000000000000000000000000BF
:1011300000000000000000000000000000000000AF
:10114000000000000000000000000000000000009F
:10115000000000000000000000000000000000008F
:10116000000000000000000000000000000000007F
:10117000000000000000000000000000000000006F
:10118000000000000000000000000000000000005F
:10119000000000000000000000000000000000004F
:1011A000000000000000000000000000000000003F
:1011B000000000000000000000000000000000002F
:1011C000000000000000000000000000000000001F
:1011D000000000000000000000000000000000000F
:1011E00000000000000000000000000000000000FF
:1011F00000000000000000000000000000000000EF
:1012000000000000000000000000000000000000DE
:1012100000000000000000000000000000000000CE
:10122000000000000000000000000000F86F7027C0
:1012300006300C18FC0FF003000000000E700E705A
:101240000E60000000000000000000003C38F83F85
:10125000F03F00000000000000000000781EF00FCA
:10126000E00700000000000000000000F038F03F40
:10127000C03F00000000000000000000001CFC1F38
:10128000FC1F00000000000000000000000E000E27
:10129000000E000000000000000000003E1CFC0FDB
:1012A000F003000000000000000000001C381C38A3
:1012B0001C380000000000000000000080038003D4
:1012C000800300000000000000000000C03FC03F9D
:1012D000000F000000000000000000001E380E3863
:1012E0000E3800000000000000000000001CF81F85
:1012F000F81F00000000000000000000C7E3C7E383
:1013000087E1000000000000000000003C383C388D
:101310001C3800000000000000000000F81FF00F63
:10132000E007000000000000000000000038003866
:10133000003800000000000000000000F81FFE0F51
:10134000EF07070000000000000000001E380E3804
:101350000E3800000000000000000000383CF81FBC
:10136000E007000000000000000000008003800390
:10137000800300000000000000000000F81FF00FD4
:10138000E00700000000000000000000E003C003D0
:10139000C001000000000000000000003C3C381CC0
:1013A0001818000000000000000000001E781E78E1
:1013B0000E700000000000000000000080038003A9
:1013C0008003000000000000000000000078FC7FA7
:1013D000FC7F000000000000000000008001800190
:1013E00080018001E001E00100000000E000F00069
:1013F000700000000000000000000000800180017B
:1014000080018001800F800F0000000000000000BC
:1014100000000000000000000000000000000000CC
:101420000000FFFF0000000000000000B623F227CC
:10143000724C625C625862586458EC58700E700EC0
:10144000781C381C381CFC3FFC3F1C383838F03FF7
:10145000F03F38381C381C381C381C3800700070BD
:10146000007000700C700C701C383C3C1C381C3830
:101470001C381C381C381C3838387838001CF81FC9
:10148000F81F001C001C001C001C001C000EF80FA4
:10149000F80F000E000E000E000E000E007000701F
:1014A000FE70FE700E700E700E380E381C38FC3F49
:1014B000FC3F1C381C381C381C381C388003800347
:1014C000800380038003800380038003E000E0004A
:1014D000E000E000E070E070E070E079C03BC03F09
:1014E000E03FF03E703C78383C383C38001C001C33
:1014F000001C001C001C001C001C001C77EE77EE7A
:1015000077EE67E6E7E7E7E7E7E7C7E31C3B9C3BE7
:101510009C39DC39DC38FC387C387C380E700E7035
:101520000E700E700E701E781C383C3C1C3838381B
:10153000F83FE03F00380038003800380E700E7079
:101540000E700E700E709E79FC387C3C1E38FC3F8D
:10155000F03FE038703878383C383C38003FE01FC6
:10156000F80FF8013C001C301C381C388003800345
:101570008003800380038003800380031C381C38B1
:101580001C381C381C381C381C38383C180E380ED7
:10159000380E300E700770076007E00366666666F7
:1015A0006E766E766C363C3C3C3C3C3CF007E0078B
:1015B000C003E007F00FF81F781E3C3CE00EC007A8
:1015C000C00780038003800380038003E001C00321
:1015D00080078007000F001E001E003C8001800174
:1015E00080018001800180018001800180078003EB
:1015F0008003C003C001C001E001E0008001800160
:10160000800180018001800180018001E01C601C5C
:101610007038000000000000000000000000000022
:1016200000000000000000000000000000000000BA
:1016300000000000E003F80F1C1C04100000000074
:101640008001C003C003E007E007600E0000000057
:10165000E03FF03F7838383838383838000000003C
:10166000E007F00F781E3C3C1C380C7800000000AE
:10167000C03FF03FF038783838381C3800000000A0
:10168000FC1FFC1F001C001C001C001C00000000B4
:10169000FC0FFC0F000E000E000E000E00000000FC
:1016A000E003F80F3C1C1C380E380C7000000000E2
:1016B0001C381C381C381C381C381C380000000032
:1016C0008003800380038003800380030000000008
:1016D000E000E000E000E000E000E00000000000CA
:1016E0000C381C383C387838F038E03900000000FD
:1016F000001C001C001C001C001C001C0000000042
:101700001FF81FF83FFC3FFC3FFC37EC00000000D7
:101710001C181C3C1C3C1C3E1C3E1C3F00000000D6
:10172000E007F00FF81F3C3C1C381E78000000005A
:10173000F03FF83F3C381C381C381C3800000000D3
:10174000E007F00FF81F3C3C1C380E78000000004A
:10175000F83FFC3F1E380E380E380E3800000000EF
:10176000E007F01F381C38381838003C0000000033
:10177000FC7FFC7F80038003800380030000000067
:101780001C381C381C381C381C381C380000000061
:1017900006380E380E381C1C1C1C1C1C00000000D7
:1017A00083C1C3C3C7E3C7E3C7E3C6630000000048
:1017B0000C301E381C3C3C1C781EF00F0000000052
:1017C00018301C783838383C701CF01E00000000BF
:1017D000F83FF83F78007800F000F0010000E001E9
:1017E000E001800180018001800180010000000093
:1017F000000C001E000E000F000700070000800F05
:10180000800F8001800180018001800100000000C4
:10181000800380078007C007C00EE00C00000000B6
:1018200000000000000000000000000000000000B8
:1018300000000000000000000000000000000000A8
:101840000000000000000000000000000000000098
:101850000000000000000000000000000000000088
:101A3000000000000000000000000000F038F01F6F
:101A4000380E00000000000000000000381EF81FE3
:101A5000E01D00000000000000000000781CF00FF6
:101A6000C00700000000000000000000781CF81F04
:101A7000B80700000000000000000000381CF00F54
:101A8000C007000000000000000000000007000781
:101A9000000700000000000000000000781CF81F94
:101AA000B80738103838701CF01FC007703870380D
:101AB0007038000000000000000000008003800378
:101AC000800300000000000000000000800380038D
:101AD0008003800380038003801F001F380E1C0ECC
:101AE0000C0E0000000000000000000080038003D6
:101AF000800300000000000000000000C7E1C7E113
:101B0000C7E100000000000000000000381C381C85
:101B1000381C00000000000000000000E038C01F7A
:101B2000800F00000000000000000000703CF03F4B
:101B3000C03B00380038003800380038781CF81FE7
:101B4000B80738003800380038003800000E000EA2
:101B5000000E00000000000000000000381EF00F22
:101B6000E007000000000000000000008003F00318
:101B7000F00100000000000000000000781EF80FD7
:101B8000B80700000000000000000000C003C00310
:101B9000800100000000000000000000381C381C1C
:101BA000381C00000000000000000000783C3838BD
:101BB000383000000000000000000000C003C00337
:101BC000C003800180038003001F001E001EF83F39
:101BD000F83F00000000000000000000C001C0014C
:101BE000C001F001F00070000000000080038003DD
:101BF00080038003800380030000000000070007CB
:101C00000007001F001E001C000000000000000074
:101C100000000000000000000000000000000000C4
:101C2000000000000000000000000000001C000098
:101C3000000000000000000000000000E01F70181D
:101C40007010F000F00F701E70387038F81F381EDA
:101C50001C1E1C1C1C1C1C1C1C1C1C1EF00F701CA5
:101C6000383C1038003800381038383CF81F781CE1
:101C7000783838383838383838387838E00F701CC9
:101C800038383838F83FF03F00381038C01F0007A8
:101C9000000700070007000700070007F81F781C6F
:101CA000383838383838383838383838E03FF03C49
:101CB000703870387038703870387038800380032E
:101CC00080038003800380038003800380038003FC
:101CD000800380038003800380038003380E700E2E
:101CE000E00EC00FE00F700F700E380E80038003FF
:101CF000800380038003800380038003FFFFE7F1FC
:101D0000C7E1C7E1C7E1C7E1C7E1C7E1F01F781E3E
:101D1000381C381C381C381C381C381CC01FE038D4
:101D2000707070707070707070707070F03F703C98
:101D3000383C3838383838383838383CF81F781C50
:101D4000783838383838383838387838F00F100F55
:101D5000000E000E000E000E000E000EF00F701CA4
:101D6000301C001FE00FF0037800381CE00F8003E8
:101D7000800380038003800380038003381C381CA9
:101D8000381C381C381C381C381C381C381C381CB3
:101D9000300C700E700E6006E007C003C7E3C7E3A7
:101DA000C663E6676E766C366C367C3E783CF01E19
:101DB000E00FC007C007E00FE00EF01E381C381C13
:101DC000300C700E700E60066007E007F83F780078
:101DD000F000E001C00380070007000EC00180038F
:101DE000800780078003C001C001C0018003800319
:101DF0008003800380038003800380030007800347
:101E0000C003C003800300070007000700000000B4
:101E100000000000000000000000000000000000C2
:101E200000000000000000000000000000000000B2
:101E3000001C003E006300630063003E00000000E1
:101E400000000000000000000000C00F00000000C3
:101E5000001C001C001C001C001CF01D00000000E9
:101E600000000000000000000000C00700000000AB
:101E700038003800380038003800B80F0000000083
:101E800000000000000000000000C007000000008B
:101E9000E003E007000700070007C01F0000000084
:101EA00000000000000000000000B80F000000006B
:101EB00000380038003800380038C03B000000000F
:101EC0008003800380030000000080030000000006
:101ED00080038003800300000000800300000000F6
:101EE000000E000E000E000E000E180E0000000086
:101EF00080038003800380038003800300000000D0
:101F0000000000000000000000009EEF0000000044
:101F100000000000000000000000E01D00000000C4
:101F200000000000000000000000800F0000000022
:101F300000000000000000000000C03B00000000A6
:101F400000000000000000000000B80700000000D2
:101F500000000000000000000000E00E0000000093
:101F600000000000000000000000C00700000000AA
:101F700080038003800380038003E00700000000EB
:101F800000000000000000000000381C00000000FD
:101F90000000000000000000000018180000000011
:101FA0000000000000000000000083C100000000ED
:101FB00000000000000000000000383800000000B1
:101FC00000000000000000000000181800000000E1
:101FD00000000000000000000000F83F7000F0006A
:101FE000F001C001C001C001C001C0018003800335
:101FF000800380038003800380038003001C001E95
:10200000001F00070007000700070007000000008E
:102010000000081EF83FF83FF0200000000000001C
:0C202000000000000000000000000000B4
:00000001FF
