:10000000130BC000231E60FFB78FFFFF37C5000032
:100010003375F501EF00C01B031B80FF130200F0D6
:10002000130222FE93030000130B1001634C7B109C
:100030001302E201930200E0938202FF1303000027
:10004000130B000363486B0E13850200EF0040188A
:1000500093820201138402009304020013850200BC
:10006000EF00001713050200EF00801613060000D2
:10007000130BE001634CCB08930604001307040044
:10008000EF00C00C1385060093860400138704005C
:10009000EF00C00B93850600B30AB50013050500F9
:1000A000EF00001313850500EF00801213850A008E
:1000B000EF000012938A0AC013850A00EF00401176
:1000C000B3FAFA0113058004231EA0FE13850A006B
:1000D000EF00001013050400EF00800F13850400EB
:1000E000EF00000F6304500393060400138704001D
:1000F000EF00C005B384D600B38444003304B54098
:1001000033045400130616006FF09FF6130BF00132
:10011000630ACB00130BE003330BCB40231E60FFBD
:100120006F00C000130B0002231E60FF13031300B7
:100130006FF01FF1130BA000231E60FF93831300C9
:100140006FF09FEE231C60FF6F000000B3F7F60115
:10015000638C0700B306D040B377F701638C0700C8
:100160003307E0406F000004B377F701638C0702A8
:100170003307E040130100019307000093F11600DC
:1001800063840100B387E70093D6160013171700A6
:100190001301F1FFE31401FE93D68700B306D040AC
:1001A00067800000130100019307000093F116001F
:1001B00063840100B387E70093D616001317170076
:1001C0001301F1FFE31401FE93D68700678000005E
:1001D000130EC001130FA003B35EC50193FEFE0012
:1001E000938E0E0363C4EE01938E7E00231ED0FF18
:1001F00063060E00130ECEFF6FF01FFE930ED000AD
:08020000231ED0FF67800000FF
:00000001FF
