:10000000130BC000231E60FFB78FFFFF031B80FF91
:10001000130200F0130222FE93030000130B1001E1
:1000200063407B0C1302E201930200E0938202FF23
:1000300013030000130B0003634C6B08938202014F
:10004000138402009304020013060000130BE00166
:10005000634CCB049306040013070400EF00C008B0
:10006000138A06009386040013870400EF00C0077C
:1000700093850600B30ABA00938A0AC0B3FAFA015C
:10008000630450039306040013870400EF00C005C7
:10009000B384D600B38444003304BA40330454001C
:1000A000130616006FF09FFA130BF001630ACB00E2
:1000B000130BE003330BCB40231E60FF6F00C00027
:1000C000130B0002231E60FF130313006FF09FF653
:1000D000130BA000231E60FF938313006FF01FF427
:1000E000231C60FF6F000000B3F7F601638C07006C
:1000F000B306D040B377F701638C07003307E040C5
:100100006F000004B377F701638C07023307E04008
:10011000130100019307000093F1160063840100AE
:10012000B387E70093D61600131717001301F1FFEA
:10013000E31401FE93D68700B306D0406780000029
:10014000130100019307000093F11600638401007E
:10015000B387E70093D61600131717001301F1FFBA
:0C016000E31401FE93D6870067800000C6
:00000001FF
