:10000000231C80FE031480FFB721000013020000B0
:1000100013042003B7230000B383710093D4A340DB
:1000200013D59340B383A400638A030093040002B2
:10003000231E90FE9383F3FF6FF01FFF9304A00233
:10004000231E90FE9304D000231E90FE13D3314054
:1000500033036240935473403303934093523240CE
:10006000B382510093D47240B382924013020300D2
:10007000938102001304F4FFE30404F86FF09FF986
:00000001FF
