:10000000930780FF2390870003940700B721000027
:100010001302000013042003B7230000B383710010
:1000200093D4A34013D59340B383A400638C0300FF
:10003000930400029307C0FF239097009383F3FF7C
:100040006FF0DFFE9304A0029307C0FF2390970098
:100050009304D0002390970013D3314033036240C0
:10006000935473403303934093523240B382510010
:1000700093D47240B3829240130203009381020032
:0C0080001304F4FFE30E04F66FF01FF908
:00000001FF
