:100000003755341213058567EF00C00F3705A6FE7C
:10001000130585ECEF00000F375534121305856783
:10002000EF00400E231C80FE031480FFB721000068
:100030001302000013042003B7230000B3837100F0
:1000400093D4A34013D59340B383A4001385010038
:10005000EF00400B13050200EF00C00A13850300F8
:10006000EF00400A638A030093040002231E90FEFF
:100070009383F3FF6FF01FFF9304A002231E90FEF3
:100080009304D000231E90FE13D3314013050300C8
:10009000EF0040073303624013050300EF008006C2
:1000A0009354734013850400EF00C005330393405D
:1000B00013050300EF000005935232401385020040
:1000C000EF004004B382510013850200EF0080036B
:1000D00093D4724013850400EF00C002B3829240B3
:1000E00013850200EF0000029307D000231EF0FEEC
:1000F00013020300938102001304F4FFE30404F2EB
:100100006FF09FF39307D000231EF0FE37070080A7
:1001100093070003B376E50063840600930710039A
:10012000231EF0FE13571700E31407FE678000003C
:00000001FF
